:020000040000fa
:10000000f07f0020914501000b2501000b27010026
:1000100000000000000000000000000000000000e0
:10002000000000000000000000000000e3100100dc
:100030000000000000000000e3100100e3100100d8
:10004000e3100100e3100100e3100100e3100100e0
:10005000b5520100e3100100dd300100e3100100a2
:10006000e3100100e3100100e3100100e3100100c0
:100070009db900000dc800003df10000e310010033
:10008000e3100100e3100100a5700100e31001007e
:10009000e31001000000000000000000e310010078
:1000a000e3100100e3100100e3100100e310010080
:020000040000fa
:1000b000f8b5c046f8bc08bc9e46704775510100b3
:1000c000f8b5c046f8bc08bc9e4670474d510100cb
:020000040000fa
:0800d00008f40000010000002b
:020000040000fa
:1000d800f0b5d9b0099115001e001c000a9017f060
:1000e800b1fc036818001d9317f033ff0a9b1590a5
:1000f800002b06d09b6b0b93002b02d10a9815f0ae
:10010800adf9099b0c229a5e80239b011a4209d102
:100118001343099a9381136e0b930b9aa64b1340c2
:10012800099a1366099b9b891b0719d5099b1b69ab
:100138000b93002b14d01a22099b9b8913400a2b7e
:1001480018d1099b0e229b5e002b13db33002a007b
:1001580009990a9813f066f81690169859b0f0bde8
:1001680009990a980ff0ceff0028e4d001235b42da
:100178001693f2e700232faf2c972e932d930b9510
:100188000e9319931a9320931f9312931b931e9304
:1001980016930b9d2b78002b02d0252b00d092e0d4
:1001a8000b9bee1a17d03b602e9b7e609b192e93fb
:1001b8002d9b08370c9301332d93072b08dd2caab0
:1001c80009990a9813f09ef8002800d0fae12faf99
:1001d800169b9b1916932b78002b01d101f0c8f9b7
:1001e8001b2200231ea95218137001221e0052421e
:1001f80001350d9217930a226b1c14932b780f93d9
:100208000f9820385a2801d900f0bafd17f03afda6
:100218009f00b805b805a900b805b805b805840059
:10022800b805b805ab00b400b805b200b900b80508
:10023800e200e400e400e400e400e400e400e40098
:10024800e400e400b805b805b805b805b805b80570
:10025800b8057601b8050e0121017601760176010f
:10026800b805b805b805b805f500b805b8057704a8
:10027800b805b805b805bd04b805e004b805b80563
:100288005d00b805b805b805b805b805b805b805de
:10029800b8057601b8050e012301760176017601cd
:1002a800f70023010a01b8050301b8054e047904d3
:1002b800ab040a01b805bd04a700e204b805b805f7
:1002c8001205b805a700013564e73c4b213320210e
:1002d8002093314001d100f0b1fc072307349c433f
:1002e8002300083310932368646806930794f30780
:1002f8000dd5069b079a134309d0302225ab1a70f7
:100308003c216a46521812785a7002231e432c4b1d
:100318001e40022300f005fc0a9817f093fb43687f
:1003280018001e9317f015fe1b900a9817f08afb09
:10033800836812931b9b002b11d0129b002b0ed0ad
:100348001b78002b0bd08023db001e4307e01b2308
:100358001eaa9b181a78002a01d120221a70149d0f
:1003680049e70123f1e7236804341793002bf6daf1
:100378005b4217930423e8e71b231ea92b225b1873
:10038800ece71499149b097801330f912a2908d0b6
:1003980000210d910f9819003038092812d91491ad
:1003a8002ee72168221d0d91002902da0121494218
:1003b8000d9114001493d2e7ffdfffff2c660100b4
:1003c800fffbffff0d99514341180d911978013337
:1003d8000f91dfe78023b8e700231793179b0f9946
:1003e80053433039cb181793149b591c1b7814911d
:1003f8000f93303b092bf1d9d1e70823a5e7149bcc
:100408001b78682b05d1149b0133149380239b0020
:100418009be7402399e7149b1b786c2b04d1149b12
:1004280001331493202390e710238ee7231d2268bd
:1004380010933fab1a701b2200201ea9521810708f
:1004480001220c900d9205001190139004000b935b
:100458004be210231e43b3063bd5072307349c43c6
:100468002300083310932368646806930794079a57
:100478000123002a0cda0699079a00244b4294417a
:10048800069307941b232d221ea95b181a700123bb
:100498000799069a0a430d99013101d101f098f89c
:1004a800802134008c43002a01d001f096f80d9a7f
:1004b800002a01d100f055fc012b00d1e5e3022b05
:1004c80001d100f02ffc002200230692079301f0cf
:1004d8008cf8221df30605d5236810920693db17c6
:1004e8000793c4e7730603d510920022a35ef5e7cd
:1004f80023681092b105f1d55bb2efe70723073403
:100508009c43230001220833109323685242199315
:100518006368199d1a931a9b28005c0064089b4b1a
:10052800210016f0b3f8002801d001f02ef80122be
:10053800964b52422800210012f0fcf9002801d005
:1005480001f023f80022002319981a9912f0e8f90b
:10055800002804d01b232d221ea95b181a708c4b6f
:100568001a1d0b920f9a472a00dc0b9380239e4397
:1005780000230c9303230d9300252b0001f05cf856
:1005880020230f9c9c43412c22d130220f9925ab6c
:100598001a705822612900d178225a7002231e430a
:1005a8000d9b632b00dc9fe0591c0a9807f008ff9d
:1005b8000b90002800d09ce0099b9a8940231343a4
:1005c800099a9381099b9b895b0600d4c5e5cde513
:1005d8000d9b0c90013300d18ee0472c03d10d9b6d
:1005e800002b00d18be080235b00334321931a9bbf
:1005f800002b00db87e0802212069446199b0e939d
:100608001a9b634411932d232293412c00d0b3e00d
:1006180026aa0e98119913f0c1faff2300229b0510
:1006280007f0bcfc0022002304000d0012f072f950
:10063800002801d001232693554b1a00213211922c
:100648000f9a612a01d1103311930d9b013b13932b
:100658000b9b1c9300224f4b2000290007f09efca7
:100668000d00040013f03af9189012f0c1fc0200d2
:100678000b002000290005f011f91c9b189a013382
:100688000e93119b04009b5c1c9a0d001370139b26
:10069800239301330ad0139b0022013b13930e9b33
:1006a8001c93002312f036f90028d3d000223a4bcd
:1006b8002000290012f048f9002829d10022364be1
:1006c8002000290012f026f9002802d0189bdb0729
:1006d8001ed430200e9b23990e9cc91a1a00cc42b6
:1006e80029d418700133f6e700230c933fab0b9322
:1006f80079e70b9b0c9376e706230d9373e70d9b25
:100708000c930123f9e7199a11930e9200237be7c2
:1007180030200e9b2a93119bda7b2a9b013b2a935c
:100728001978914226d04a1cd2b2392901d1119a9e
:10073800927a1a700e9a0b9bd31a0e930f9b462b24
:1007480005d0652b73dd0f9b662b00d06be1269bd4
:10075800002b00dc5de10d9a002a04d166220f927d
:10076800f20700d472e1159a9b180d9a9b1866221d
:100778000f926be11870d0e7462c0fd00d9d452cd9
:1007880001d10d9b5d1c02230ae0c046ffffef7fed
:100798002c660100000030400000e03f03230d9d5f
:1007a8002aaa049227aa039226aa029200930195e4
:1007b8000e9a119b0a9803f059fb0b90472c01d114
:1007c800f30724d50b9b5b191393462c13d10b9b72
:1007d8001b78302b0ad1002200230e98119912f0b1
:1007e80099f8002802d101235d1b2695269a139bb0
:1007f800944663441393002200230e98119912f033
:1008080089f83022002800d1e8e0139b2a932a9b1c
:100818000b9a9b1a0e93472c90d1269bda1c03db6c
:100828000d9a9a4200dbfee00f9b023b0f932023b8
:1008380026980f9a441e26949a43412a01d000f024
:10084800bafe01210f9b0f33dbb228aa13702b23aa
:10085800002c02da01242d23241a5370092c00dc01
:10086800c8e037251eabed186b1e20000a210d933a
:1008780010f08efa6b1e3031197020000a2110f02a
:100888003dfa0400092800ddade02a2337211eaa1d
:10089800023d30342c709b1889181a008d4200d202
:1008a800a3e028abd31a1f931f9a0e9b9446634468
:1008b8000d930e9b012b01dcf30704d5159a0d9bb4
:1008c800944663440d93cb4b80221e4000231c00aa
:1008d80052001643119313930025229bab4204d078
:1008e8001b232d221ea95b181a700d9b18959d427b
:1008f80000da18931b231eaa9b181b785a1e9341d3
:10090800189ad318189302233340219302d0189bc6
:100918000233189384233340229306d1179b189ae5
:100928009b1a1c93002b00dd57e21b231eaa9b1861
:100938001a78002a16d03b6001237b602e9b08376b
:1009480001332e932d9b1c9301332d93072b09dd27
:100958002caa09990a9812f0d5fc002801d000f0b9
:10096800e1fd2faf219b002b17d025ab3b60022365
:100978007b602e9b083702332e932d9b1c930133eb
:100988002d93072b09dd2caa09990a9812f0bafcb5
:10099800002801d000f0c6fd2faf229b802b06d186
:1009a800179b189a9b1a1c93002b00dd4ce20d9b99
:1009b800ed1a002d00dd7ce2f30500d59ae20b9bd1
:1009c8003b600d9b7b602e9b0b930b9a0d9b944673
:1009d80063442e9313e3591c2a911a702a9b139986
:1009e8009942f8d813e70d9d3ee72a7801351a7029
:1009f800013352e72a231eaa9b18002905d1302269
:100a080028ab9a702b231eaa9b1830345a1c1c70d2
:100a180047e70d9b002b03d101231e4200d1a6e618
:100a2800159b0133a1e6269a0e9b9a4205dbf30734
:100a380021d5159bd31867229ae615990e9b5b184a
:100a480067210f91002a01dc9b1a0133269a710550
:100a580025d5141e23dd002211921392129a1278c2
:100a6800ff2a0ad11199139a219e52181b994a43b9
:100a7800d3180d9330e71300dde79442f2dda41a92
:100a8800129a5278002a06d0139a01321392129ab7
:100a980001321292e2e7119a01321192dee70d93c8
:100aa80000231400219e1193139315e7231db2060a
:100ab8000ad5169a109323681a60d2175a60149ba5
:100ac800109c0b93fff765fbf20604d5109323687f
:100ad800169a1a60f3e7720607d56a465821521823
:100ae8001093128823681a80e9e7b205eed56a46a2
:100af800582152181093127823681a70dfe71023d0
:100b08001e432021314012d0072307349c43230081
:100b1800083310932368646806930794354b1e4086
:100b280000231b2200211ea812181170b0e4102304
:100b3800221d334004d02368109206930791ede7f5
:100b48004021314005d01092226892b20692079354
:100b5800e4e780239b003340109202d02368dbb285
:100b6800ebe72268f2e7231d30221093236825a9ba
:100b7800069300230a707822079302234a701e49bd
:100b88001e43103120910f92cbe7231d1093236849
:100b980000240b931b231eaa9b181c700d9b01336a
:100ba80010d00d9a21000b9816f07bff0c90a042f4
:100bb80000d1f7e00b9a0c94831a0d932500119439
:100bc800139492e60b9817f0c4f90c940d90d3e4a3
:100bd80010231e432021314010d0072307349c43a3
:100be800230008331093236864680693079401234d
:100bf80097e7c046fffbffff2c6601001023221d6c
:100c0800334004d02368109206930791efe7402100
:100c1800314005d01092226892b206920793e6e717
:100c280080239b003340109202d02368dbb2ebe7ad
:100c38002268f2e7ac4b1033fff749fb1023221d63
:100c4800334005d02368109206930791fff74ffbb6
:100c58004021314006d01092226892b20692079342
:100c6800fff745fb80239b003340109202d0236896
:100c7800dbb2e9e72268f1e70b9b00f0b8fc079bc1
:100c8800002b0bd1069b092b08d8e7231eaa9b181b
:100c9800069a30321a700b9300f0c6fc80250023a8
:100ca800ed000e93254058ab013b0b930a220698a2
:100cb8000799002314f030ff0b9b30321a700e9bfb
:100cc80001330e93002d1dd0129b0e9a1b789a4269
:100cd80018d1ff2a16d0079b002b02d1069b092b9f
:100ce80010d90b9b1b9a1e999b1a18000b9315f091
:100cf800e5ff0022129b0e925b785a1e9341129ace
:100d0800d31812930a2206980799002314f004ffb7
:100d180006900791069b079a134301d100f084fcc3
:100d28000b9bc1e700220023069207930f2058abc4
:100d38000b930b9b209a013b0b93069b0340d35cc0
:100d48000b9a1370079b1907069b1a09079b1143f7
:100d58001b0907930b00079a06911343e9d100f08a
:100d680063fc58aa0b92002b01d000f05dfcf3073e
:100d780001d400f059fce7231eaa9b18302289e70a
:100d88000f9b002b00d1f3e33c216a4652181278de
:100d98003fab1a701b2200201ea952181070109425
:100da800fff74efb0c9dfff7e8fb10237b602e9ba3
:100db800083710332e932d9b239301332d93072b44
:100dc80008dd2caa09990a9812f09cfa002800d08c
:100dd800a8e32faf1c9b103b1c93444b1c9a3b6011
:100de800102ae2dc2e9b7a6023931300239a08379b
:100df800944663442e932d9b1c9301332d93072b0c
:100e080000dc92e52caa09990a9812f07bfa0028ce
:100e180000d087e32faf88e510237b602e9b08372f
:100e280010332e932d9b219301332d93072b08dd2f
:100e38002caa09990a9812f065fa002800d071e3e3
:100e48002faf1c9b103b1c93294b1c9a3b60102a0c
:100e5800e2dc2e9b7a6021931300219a083794468e
:100e680063442e932d9b1c9301332d93072b00dc99
:100e78009de52caa09990a9812f044fa002800d096
:100e880050e32faf93e510237b602e9b0837103378
:100e98002e932d9b1c9301332d93072b08dd2caa31
:100ea80009990a9812f02efa002800d03ae32fafd9
:100eb800103d0f4b3b60102de5dc2e9b7d605d19ce
:100ec8002d9b2e951c9301332d930837072b00dc9f
:100ed80072e52caa09990a9812f014fa002800d091
:100ee80020e32faf68e5c0462c6601000c7f0100a7
:100ef8001c7f01000f9b652b00dc67e200220023aa
:100f080019981a9911f006fd002800d187e0c94bfd
:100f180032333b6001237b602e9b083701332e93cd
:100f28002d9b0b9301332d93072b08dd2caa0999d0
:100f38000a9812f0e7f9002800d0f3e22faf269bb9
:100f48000e9a934201dbf3071cd5159a1d9b944614
:100f58003b60159b7b602e9b083763442e932d9b2b
:100f68000b9301332d93072b08dd2caa09990a98b6
:100f780012f0c8f9002800d0d4e22faf0e9b5c1ef7
:100f8800002c34dc730700d5afe2179b189a934204
:100f980000da1300169ad31816932e9b0b93002b86
:100fa80007d02caa09990a9812f0acf9002800d0a9
:100fb800b8e200232d930c9b002b00d0d3e22faf77
:100fc8007de510237b602e9b083710332e932d9bd5
:100fd8000b9301332d93072b08dd2caa09990a9846
:100fe80012f090f9002800d09ce22faf103c924bf1
:100ff8003b60102ce5dc2e9b7c601c192e942d9bed
:101008000b9301332d93072b70dd2caa09990a98ad
:1010180012f078f9002800d084e22fafb2e7269bbf
:10102800002b7ddc834b32333b6001237b602e9b9e
:10103800083701332e932d9b0d9301332d93072be6
:1010480008dd2caa09990a9812f05cf9002800d04a
:1010580068e22faf269b002b04d10e9b002b01d1f9
:10106800f3078fd5159a1d9b94463b60159b7b60b3
:101078002e9b083763442e932d9b0d9301332d939c
:10108800072b08dd2caa09990a9812f03bf90028c9
:1010980000d047e22faf269c002c18da6442664a3b
:1010a8003a60102c24dc2e9b7c601c192d9b2e94fe
:1010b8005a1c08370d932d92072a08dd2caa099986
:1010c8000a9812f01ff9002800d02be22faf0e99d2
:1010d8000b9b8c463b600e9b7b602e9b63442e9340
:1010e8002d9b5a1c0b932d92072a8edc083749e753
:1010f80010222e9b7a601a002d9b10322e925a1cb9
:101108000d932d920837072a08dd2caa09990a9809
:1011180012f0f8f8002800d004e22faf103cbee728
:101128000e9b25009c4200dd1d00002d15dd0b9b4c
:101138007d603b602e9b08375b192e932d9b0d938a
:1011480001332d93072b08dd2caa09990a9812f070
:10115800d9f8002800d0e5e12fafeb43db171d409d
:10116800651b002d00dd7fe00b9b1c1973050dd559
:10117800139b002b00d091e0119b002b00d090e036
:101188000b9b0e9a9b189c4200d91c00269b0e9a1a
:10119800934201dbf30718d5159a1d9b94463b60d3
:1011a800159b7b602e9b083763442e932d9b0d93d4
:1011b80001332d93072b08dd2caa09990a9812f000
:1011c800a1f8002800d0ade12faf0e9a0b9b9446f2
:1011d800269963441b1b551a9d4200dd1d00002df6
:1011e80014dd2e9b3c605b192e932d9b7d600b9329
:1011f80001332d930837072b08dd2caa09990a9883
:1012080012f080f8002800d08ce12fafeb43db17f9
:101218001d40269a0e9b9b1a5d1b002d00dcb1e633
:10122800054b3b60102d00ddb9e02e9b7d605d19fc
:101238002e95e4e62c6601001c7f010010237b60dc
:101248002e9b083710332e932d9b0d9301332d932e
:10125800072b08dd2caa09990a9812f053f80028e0
:1012680000d05fe12faf103dd64b3b60102de5dc81
:101278002e9b7d605d192d9b2e950d9301332d932b
:101288000837072b00dc6fe72caa09990a9812f097
:1012980039f8002800d045e12faf65e7119b002bf6
:1012a80047d0119b013b11931b9a1e9b94463b60b0
:1012b8001b9b7b602e9b083763442e932d9b0d93bd
:1012c80001332d93072b08dd2caa09990a9812f0ef
:1012d80019f8002800d025e12faf0e9a0b9b9b1818
:1012e800129a1b1b15789d4200dd1d00002d14dd90
:1012f8002e9b3c605b192e932d9b7d600d930133d3
:101308002d930837072b08dd2caa09990a9811f0a4
:10131800f9ff002800d005e12fafeb43db171d4094
:10132800129b1b785d1b002d20dc129b1b78e41898
:101338001ee7129b013b1293139b013b1393b3e7e8
:1013480010237b602e9b083710332e932d9b0d9313
:1013580001332d93072b08dd2caa09990a9811f05f
:10136800d1ff002800d0dde02faf103d954b3b604a
:10137800102de5dc2e9b7d605d192d9b2e950d9320
:1013880001332d930837072bcfdd2caa09990a982a
:1013980011f0b8ff002800d0c4e02fafc5e7102334
:1013a8007b602e9b083710332e932d9b0b930133b4
:1013b8002d93072b08dd2caa09990a9811f0a2ff92
:1013c800002800d0aee02faf103d29e70e9b012b7f
:1013d80003dc01231e4200d180e00b9b3b6001230c
:1013e8007b602e9b083701332e932d9b0d93013381
:1013f8002d93072b08dd2caa09990a9811f082ff72
:10140800002800d08ee02faf159a1d9b94463b60b4
:10141800159b7b602e9b083763442e932d9b0d9361
:1014280001332d93072b07dd2caa09990a9811f08f
:1014380069ff002876d12faf0023002219981a9946
:1014480011f068fa0e9b5d1e00281fd10b9b0e9aa7
:1014580001333b602e9b7d60013b9b182e932d9b97
:1014680008370b9301332d93072b07dd2caa099915
:101478000a9811f047ff002854d12faf28ab3b60e2
:101488001f9b1f9a7b602e9bfff7a1fa002df5ddad
:101498004c4b3b60102d0bdc2e9b7d605d192e950f
:1014a8002d9b0b9301332d93072bdfdc0837e5e7e2
:1014b80010237b602e9b083710332e932d9b0b93a4
:1014c80001332d93072b07dd2caa09990a9811f0ef
:1014d80019ff002826d12faf103dd9e77b602e9b3e
:1014e8000b9a01333a602e93dae7179b189a9c1ae5
:1014f800002c00dc49e5344b3b60102c1ddc2e9b96
:101508007c601c192d9b2e940b9301332d93072b74
:1015180000dc3ae52caa09990a9811f0f3fe002894
:1015280000d132e50c9b002b01d1fff74bf81900d5
:101538000a980bf085fbfff745f810237b602e9b7c
:10154800083710332e932d9b0b9301332d93072bc4
:1015580007dd2caa09990a9811f0d4fe0028e1d1d8
:101568002faf103cc7e70c990a980bf069fb26e5ea
:101578002e9b0693002b01d1fff724f82caa09997a
:101588000a9811f0bffefff71df8199a1a9b1998cf
:101598001a9915f07bf8002801d1fef7f1ff0b4be3
:1015a8001a000c320b920f9a472a01ddfef7deff74
:1015b8000833fef7daff6b463c229b181b780021a4
:1015c800fff743f91c7f01000c7f01002c66010026
:1015d8003400002a01d1fef76fff012b01d1fff77c
:1015e8004efb022b01d1fff7a1fb072658ab5a1e71
:1015f8000b92069a591e324030320a7007994d07ed
:101608000699c80807990543c9080791290007984a
:101618000695014301d0fff72ffbe10704d5023bf4
:10162800302a01d0fff7aafb0b9a58ab9b1a0d9de5
:101638000d93002326000c93119313931c00fff7be
:0416480054f9c0464b
:020000040000fa
:10164c00f0b5d9b00b9115001c000a9016f0f8f902
:10165c00036818001d9316f07afc0b9b15909b8960
:10166c001b0618d50b9b1b690993002b13d140212a
:10167c000a9806f0a3fe0b9b18601861002807d18e
:10168c000c230a9a13600d3b1693169859b0f0bdb3
:10169c0040230b9a536100232faf2c972e932d933d
:1016ac0009950e9319931a9320931f9312931b93de
:1016bc001e931693099d2b78002b02d0252b00d05e
:1016cc0092e0099bee1a17d03b602e9b7e609b1913
:1016dc002e932d9b08370c9301332d93072b08dd8c
:1016ec002caa0b990a980df0b5fb002800d0f5e157
:1016fc002faf169b9b1916932b78002b01d101f061
:10170c00c9f91b2200231ea95218137001221e00b6
:10171c00524201350d9217930a226b1c14932b78ad
:10172c000f930f9820385a2801d900f0bbfd16f002
:10173c00a7fa9f00b905b905a900b905b905b905fe
:10174c008400b905b905ab00b400b905b200b90005
:10175c00b905dc00de00de00de00de00de00de00af
:10176c00de00de00de00b905b905b905b905b9051d
:10177c00b905b9057101b90508011b0171017101a8
:10178c007101b905b905b905b905ef00b905b90578
:10179c007804b905b905b905be04b905e104b90564
:1017ac00b9055d00b905b905b905b905b905b9059e
:1017bc00b905b9057101b90508011d017101710166
:1017cc007101f1001d010401b905fd00b9054f04bb
:1017dc007a04ac040401b905be04a700e304b905fe
:1017ec00b9051305b905a700013564e7bf4b2133d3
:1017fc0020212093314001d100f0b2fc07230734a3
:10180c009c43230008331093236864680693079461
:10181c00f3070dd5069b079a134309d0302225ab4d
:10182c001a703c216a46521812785a7002231e43d1
:10183c00af4b1e40022300f006fc0a9816f000f98c
:10184c00436818001e9316f082fb1b900a9816f042
:10185c00f7f8836812931b9b002b11d0129b002b63
:10186c000ed01b78002b0bd08023db001e4307e02f
:10187c001b231eaa9b181a78002a01d120221a7049
:10188c00149d49e70123f1e7236804341793002bd7
:10189c00f6da5b4217930423e8e71b231ea92b22dd
:1018ac005b18ece71499149b097801330f912a29e2
:1018bc0008d000210d910f981900303809280cd947
:1018cc0014912ee72168221d0d91002902da0121c5
:1018dc0049420d9114001493d2e70d9951434118cc
:1018ec000d91197801330f91e5e78023bee70023b2
:1018fc001793179b0f9953433039cb181793149b9d
:10190c00591c1b7814910f93303b092bf1d9d7e755
:10191c000823abe7149b1b78682b05d1149b013370
:10192c00149380239b00a1e740239fe7149b1b7813
:10193c006c2b04d1149b01331493202396e71023b2
:10194c0094e7231d226810933fab1a701b220020d2
:10195c001ea95218107001220c900d9205001190c6
:10196c0013900400099352e210231e43b3063cd596
:10197c00072307349c4323000833109323686468bf
:10198c0006930794079a0123002a0cda0699079a02
:10199c0000244b429441069307941b232d221ea92d
:1019ac005b181a7001230799069a0a430d990131a5
:1019bc0001d101f09ff8802134008c43002a01d022
:1019cc0001f09df80d9a002a01d100f05cfc012b6e
:1019dc0001d100f0ecfb022b01d100f035fc002210
:1019ec0000230692079301f092f8221df30605d509
:1019fc00236810920693db170793c3e7730603d58e
:101a0c0010920022a35ef5e723681092b105f1d580
:101a1c005bb2efe7072307349c4323000122083312
:101a2c0010932368524219936368199d1a931a9b59
:101a3c0028005c0064082f4b210014f025fe0028c0
:101a4c0001d001f034f801222a4b52422800210027
:101a5c0010f06eff002801d001f029f800220023bd
:101a6c0019981a9910f05aff002804d01b232d2224
:101a7c001ea95b181a701d4b1a1d09920f9a472a42
:101a8c0000dc099380239e4300230c9303230d93c6
:101a9c0000252b0001f062f820230f9c9c43412c65
:101aac002ad130220f9925ab1a705822612900d106
:101abc0078225a7002231e430d9b632b00dca7e097
:101acc00591c0a9806f07afc0990002800d0a4e072
:101adc000b9b9a89402313430b9a93810b9b9b89f5
:101aec005b0600d4d1e501235b42cde5f86501002e
:101afc00fffbffffffffef7f0d9b0c90013300d12d
:101b0c008ee0472c03d10d9b002b00d18be0802362
:101b1c005b00334321931a9b002b00db87e0802270
:101b2c0012069446199b0e931a9b634411932d2312
:101b3c002293412c00d0b3e026aa0e98119912f0f2
:101b4c002bf8ff2300229b0506f026fa0022002327
:101b5c0004000d0010f0dcfe002801d001232693b8
:101b6c00544b1a00213211920f9a612a01d1103371
:101b7c0011930d9b013b1393099b1c9300224e4b1d
:101b8c002000290006f008fa0d00040011f0a4fe54
:101b9c00189011f02bfa02000b002000290003f022
:101bac007bfe1c9b189a01330e93119b04009b5ccb
:101bbc001c9a0d001370139b239301330ad0139bb3
:101bcc000022013b13930e9b1c93002310f0a0feec
:101bdc000028d3d00022394b2000290010f0b2fe8f
:101bec00002829d10022354b2000290010f090fe4e
:101bfc00002802d0189bdb071ed430200e9b2399a3
:101c0c000e9cc91a1a00cc4229d418700133f6e77d
:101c1c0000230c933fab099379e7099b0c9376e770
:101c2c0006230d9373e70d9b0c930123f9e7199a87
:101c3c0011930e9200237be730200e9b2a93119b6d
:101c4c00da7b2a9b013b2a931978914226d04a1cb5
:101c5c00d2b2392901d1119a927a1a700e9a099b33
:101c6c00d31a0e930f9b462b05d0652b71dd0f9b62
:101c7c00662b00d069e1269b002b00dc5be10d9a02
:101c8c00002a04d166220f92f20700d470e1159a53
:101c9c009b180d9a9b1866220f9269e11870d0e779
:101cac00462c0dd00d9d452c01d10d9b5d1c0223a6
:101cbc0008e0c046f8650100000030400000e03f3d
:101ccc0003230d9d2aaa049227aa039226aa029204
:101cdc00009301950e9a119b0a9802f0c5f8099091
:101cec00472c01d1f30724d5099b5b191393462c80
:101cfc0013d1099b1b78302b0ad1002200230e989c
:101d0c00119910f005fe002802d101235d1b2695c8
:101d1c00269a139b944663441393002200230e9837
:101d2c00119910f0f5fd3022002800d1e8e0139b4a
:101d3c002a932a9b099a9b1a0e93472c92d1269b85
:101d4c00da1c03db0d9a9a4200dbfee00f9b023b90
:101d5c000f93202326980f9a441e26949a43412ac7
:101d6c0001d000f0bafe01210f9b0f33dbb228aa81
:101d7c0013702b23002c02da01242d23241a537008
:101d8c00092c00dcc8e037251eabed186b1e2000bb
:101d9c000a210d930ef0faff6b1e303119702000e2
:101dac000a210ef0a9ff0400092800ddade02a236a
:101dbc0037211eaa023d30342c709b1889181a004a
:101dcc008d4200d2a3e028abd31a1f931f9a0e9b0f
:101ddc00944663440d930e9b012b01dcf30704d551
:101dec00159a0d9b944663440d93cb4b80221e4059
:101dfc0000231c0052001643119313930025229bc1
:101e0c00ab4204d01b232d221ea95b181a700d9b0c
:101e1c0018959d4200da18931b231eaa9b181b7859
:101e2c005a1e9341189ad3181893022333402193c6
:101e3c0002d0189b0233189384233340229306d18b
:101e4c00179b189a9b1a1c93002b00dd57e21b233f
:101e5c001eaa9b181a78002a16d03b6001237b60bf
:101e6c002e9b083701332e932d9b1c9301332d93fe
:101e7c00072b09dd2caa0b990a980cf0ebff002814
:101e8c0001d000f0e1fd2faf219b002b17d025ab2b
:101e9c003b6002237b602e9b083702332e932d9bd5
:101eac001c9301332d93072b09dd2caa0b990a984f
:101ebc000cf0d0ff002801d000f0c6fd2faf229b04
:101ecc00802b06d1179b189a9b1a1c93002b00ddb4
:101edc004ce20d9bed1a002d00dd7ce2f30500d5e4
:101eec009ae2099b3b600d9b7b602e9b0993099aa0
:101efc000d9b944663442e9313e3591c2a911a703c
:101f0c002a9b13999942f8d813e70d9d3ee72a783e
:101f1c0001351a70013352e72a231eaa9b18002997
:101f2c0005d1302228ab9a702b231eaa9b18303473
:101f3c005a1c1c7047e70d9b002b03d101231e423a
:101f4c0000d1a8e6159b0133a3e6269a0e9b9a4274
:101f5c0005dbf30721d5159bd31867229ce6159951
:101f6c000e9b5b1867210f91002a01dc9b1a013331
:101f7c00269a710525d5141e23dd00221192139289
:101f8c00129a1278ff2a0ad11199139a219e52188b
:101f9c001b994a43d3180d9330e71300dde79442a5
:101fac00f2dda41a129a5278002a06d0139a013242
:101fbc001392129a01321292e2e7119a01321192a3
:101fcc00dee70d9300231400219e1193139315e764
:101fdc00231db2060ad5169a109323681a60d217dd
:101fec005a60149b109c0993fff764fbf20604d50e
:101ffc0010932368169a1a60f3e7720607d56a469f
:10200c00582152181093128823681a80e9e7b205f8
:10201c00eed56a46582152181093127823681a701c
:10202c00dfe710231e432021314012d00723073451
:10203c009c43230008331093236864680693079429
:10204c00354b1e4000231b2200211ea812181170b4
:10205c00a9e41023221d334004d023681092069368
:10206c000791ede74021314005d01092226892b2e1
:10207c0006920793e4e780239b003340109202d032
:10208c002368dbb2ebe72268f2e7231d30221093c2
:10209c00236825a9069300230a707822079302234c
:1020ac004a701e491e43103120910f92cbe7231d1d
:1020bc0010932368002409931b231eaa9b181c70e1
:1020cc000d9b013310d00d9a2100099815f0e7fcf7
:1020dc000c90a04200d1f7e0099a0c94831a0d934e
:1020ec0025001194139492e6099815f030ff0c9486
:1020fc000d90cde410231e432021314010d0072336
:10210c0007349c43230008331093236864680693b8
:10211c000794012397e7c046fffbfffff86501001a
:10212c001023221d334004d023681092069307918c
:10213c00efe74021314005d01092226892b206920e
:10214c000793e6e780239b003340109202d023686c
:10215c00dbb2ebe72268f2e7ac4b1033fff748fb3e
:10216c001023221d334005d023681092069307914b
:10217c00fff74efb4021314006d01092226892b2fc
:10218c0006920793fff744fb80239b003340109289
:10219c0002d02368dbb2e9e72268f1e7099b00f083
:1021ac00b8fc079b002b0bd1069b092b08d8e72307
:1021bc001eaa9b18069a30321a70099300f0c6fcbe
:1021cc0080250023ed000e93254058ab013b09936d
:1021dc000a2206980799002313f09cfc099b3032c5
:1021ec001a700e9b01330e93002d1dd0129b0e9a6c
:1021fc001b789a4218d1ff2a16d0079b002b02d1cc
:10220c00069b092b10d9099b1b9a1e999b1a180027
:10221c00099314f051fd0022129b0e925b785a1e0a
:10222c009341129ad31812930a2206980799002305
:10223c0013f070fc06900791069b079a134301d18b
:10224c0000f084fc099bc1e700220023069207934f
:10225c000f2058ab0993099b209a013b0993069bcd
:10226c000340d35c099a1370079b1907069b1a0944
:10227c00079b11431b0907930b00079a0691134305
:10228c00e9d100f063fc58aa0992002b01d000f0b0
:10229c005dfcf30701d400f059fce7231eaa9b1840
:1022ac00302289e70f9b002b00d1f3e33c216a46d7
:1022bc00521812783fab1a701b2200201ea952181c
:1022cc0010701094fff747fb0c9dfff7e2fb1023f7
:1022dc007b602e9b083710332e932d9b2393013359
:1022ec002d93072b08dd2caa0b990a980cf0b2fd44
:1022fc00002800d0a8e32faf1c9b103b1c93444b31
:10230c001c9a3b60102ae2dc2e9b7a60239313000c
:10231c00239a0837944663442e932d9b1c930133c8
:10232c002d93072b00dc92e52caa0b990a980cf044
:10233c0091fd002800d087e32faf88e510237b6048
:10234c002e9b083710332e932d9b219301332d9305
:10235c00072b08dd2caa0b990a980cf07bfd0028a2
:10236c0000d071e32faf1c9b103b1c93294b1c9a84
:10237c003b60102ae2dc2e9b7a6021931300219a99
:10238c000837944663442e932d9b1c9301332d9355
:10239c00072b00dc9de52caa0b990a980cf05afd32
:1023ac00002800d050e32faf93e510237b602e9bc9
:1023bc00083710332e932d9b1c9301332d93072b31
:1023cc0008dd2caa0b990a980cf044fd002800d0cb
:1023dc003ae32faf103d0f4b3b60102de5dc2e9bed
:1023ec007d605d192d9b2e951c9301332d93083721
:1023fc00072b00dc72e52caa0b990a980cf02afd2d
:10240c00002800d020e32faf68e5c046f865010036
:10241c00dc7e0100ec7e01000f9b652b00dc67e28b
:10242c000022002319981a9910f072fa002800d192
:10243c0087e0c94b32333b6001237b602e9b08370e
:10244c0001332e932d9b099301332d93072b08dd1c
:10245c002caa0b990a980cf0fdfc002800d0f3e292
:10246c002faf269b0e9a934201dbf3071cd5159ace
:10247c001d9b94463b60159b7b602e9b08376344e9
:10248c002e932d9b099301332d93072b08dd2caa3a
:10249c000b990a980cf0defc002800d0d4e22faf88
:1024ac000e9b5c1e002c34dc730700d5afe2179b2f
:1024bc00189a934200da1300169ad31816932e9b8f
:1024cc000993002b07d02caa0b990a980cf0c2fc8c
:1024dc00002800d0b8e200232d930c9b002b00d0d9
:1024ec00d3e22faf7de510237b602e9b0837103392
:1024fc002e932d9b099301332d93072b08dd2caaca
:10250c000b990a980cf0a6fc002800d09ce22faf87
:10251c00103c924b3b60102ce5dc2e9b7c601c1914
:10252c002e942d9b099301332d93072b70dd2caa30
:10253c000b990a980cf08efc002800d084e22faf87
:10254c00b2e7269b002b7ddc834b32333b600123af
:10255c007b602e9b083701332e932d9b0d930133fb
:10256c002d93072b08dd2caa0b990a980cf072fc02
:10257c00002800d068e22faf269b002b04d10e9bc5
:10258c00002b01d1f3078fd5159a1d9b94463b6008
:10259c00159b7b602e9b083763442e932d9b0d93cc
:1025ac0001332d93072b08dd2caa0b990a980cf0fc
:1025bc0051fc002800d047e22faf269c002c18dae3
:1025cc006442664a3a60102c24dc2e9b7c601c19f9
:1025dc002d9b2e945a1c08370d932d92072a08dd3b
:1025ec002caa0b990a980cf035fc002800d02be291
:1025fc002faf0e99099b8c463b600e9b7b602e9bec
:10260c0063442e932d9b5a1c09932d92072a8edc22
:10261c00083749e710222e9b7a601a002d9b103246
:10262c002e925a1c0d932d920837072a08dd2caade
:10263c000b990a980cf00efc002800d004e22faf86
:10264c00103cbee70e9b25009c4200dd1d00002dba
:10265c0015dd099b7d603b602e9b08375b192e9323
:10266c002d9b0d9301332d93072b08dd2caa0b9971
:10267c000a980cf0effb002800d0e5e12fafeb43fc
:10268c00db171d40651b002d00dd7fe0099b1c192d
:10269c0073050dd5139b002b00d091e0119b002be3
:1026ac0000d090e0099b0e9a9b189c4200d91c000c
:1026bc00269b0e9a934201dbf30718d5159a1d9ba6
:1026cc0094463b60159b7b602e9b083763442e938e
:1026dc002d9b0d9301332d93072b08dd2caa0b9901
:1026ec000a980cf0b7fb002800d0ade12faf0e9a82
:1026fc00099b9446269963441b1b551a9d4200dd89
:10270c001d00002d14dd2e9b3c605b192e932d9b20
:10271c007d60099301332d930837072b08dd2caa14
:10272c000b990a980cf096fb002800d08ce12faf87
:10273c00eb43db171d40269a0e9b9b1a5d1b002d4d
:10274c0000dcb1e6054b3b60102d00ddb9e02e9ba3
:10275c007d605d192e95e4e6f8650100ec7e0100c4
:10276c0010237b602e9b083710332e932d9b0d93db
:10277c0001332d93072b08dd2caa0b990a980cf02a
:10278c0069fb002800d05fe12faf103dd64b3b60ba
:10279c00102de5dc2e9b7d605d192d9b2e950d93e8
:1027ac0001332d930837072b00dc6fe72caa0b990c
:1027bc000a980cf04ffb002800d045e12faf65e7dd
:1027cc00119b002b47d0119b013b11931b9a1e9b15
:1027dc0094463b601b9b7b602e9b083763442e9377
:1027ec002d9b0d9301332d93072b08dd2caa0b99f0
:1027fc000a980cf02ffb002800d025e12faf0e9a81
:10280c00099b9b18129a1b1b15789d4200dd1d001d
:10281c00002d14dd2e9b3c605b192e932d9b7d604f
:10282c000d9301332d930837072b08dd2caa0b9938
:10283c000a980cf00ffb002800d005e12fafeb43fa
:10284c00db171d40129b1b785d1b002d20dc129b9f
:10285c001b78e4181ee7129b013b1293139b013b60
:10286c001393b3e710237b602e9b083710332e9302
:10287c002d9b0d9301332d93072b08dd2caa0b995f
:10288c000a980cf0e7fa002800d0dde02faf103ddd
:10289c00954b3b60102de5dc2e9b7d605d192d9bcf
:1028ac002e950d9301332d930837072bcfdd2caad2
:1028bc000b990a980cf0cefa002800d0c4e02faf88
:1028cc00c5e710237b602e9b083710332e932d9b6e
:1028dc00099301332d93072b08dd2caa0b990a9829
:1028ec000cf0b8fa002800d0aee02faf103d29e76d
:1028fc000e9b012b03dc01231e4200d180e0099bbf
:10290c003b6001237b602e9b083701332e932d9b5c
:10291c000d9301332d93072b08dd2caa0b990a98e4
:10292c000cf098fa002800d08ee02faf159a1d9b62
:10293c0094463b60159b7b602e9b083763442e931b
:10294c002d9b0d9301332d93072b07dd2caa0b998f
:10295c000a980cf07ffa002876d12faf00230022c2
:10296c0019981a990ff0d4ff0e9b5d1e00281fd1e9
:10297c00099b0e9a01333b602e9b7d60013b9b189b
:10298c002e932d9b0837099301332d93072b07ddcd
:10299c002caa0b990a980cf05dfa002854d12faf91
:1029ac0028ab3b601f9b1f9a7b602e9bfff7a1fa05
:1029bc00002df5dd4c4b3b60102d0bdc2e9b7d6010
:1029cc005d192e952d9b099301332d93072bdfdc7d
:1029dc000837e5e710237b602e9b083710332e93c6
:1029ec002d9b099301332d93072b07dd2caa0b99f3
:1029fc000a980cf02ffa002826d12faf103dd9e7fa
:102a0c007b602e9b099a01333a602e93dae7179b71
:102a1c00189a9c1a002c00dc49e5344b3b60102cb6
:102a2c001ddc2e9b7c601c192d9b2e94099301336d
:102a3c002d93072b00dc3ae52caa0b990a980cf085
:102a4c0009fa002800d132e50c9b002b01d1fff7cd
:102a5c0045f819000a980af0f1f8fff73ff810232f
:102a6c007b602e9b083710332e932d9b09930133db
:102a7c002d93072b07dd2caa0b990a980cf0eaf979
:102a8c000028e1d12faf103cc7e70c990a980af047
:102a9c00d5f826e52e9b0693002b01d1fff71ef8e7
:102aac002caa0b990a980cf0d5f9fff717f8199a7c
:102abc001a9b19981a9913f0e7fd002801d1fef71b
:102acc00ebff0b4b1a000c3209920f9a472a01ddcf
:102adc00fef7d8ff0833fef7d4ff6b463c229b1859
:102aec001b780021fff743f9ec7e0100dc7e01002e
:102afc00f86501003400002a01d1fef768ff012bb4
:102b0c0001d1fff74efb022b01d1fff7a1fb0726ea
:102b1c0058ab5a1e0992069a591e324030320a702e
:102b2c0007994d070699c80807990543c9080791e5
:102b3c00290007980695014301d0fff72ffbe10709
:102b4c0004d5023b302a01d0fff7aafb099a58abf7
:102b5c009b1a0d9d0d93002326000c931193139338
:082b6c001c00fff754f9c046fc
:020000040000fa
:102b7400202800201c000000000000001c2500206c
:102b84006000000000000000bc27002020000000be
:102b940000000000472900200100000000000000a0
:102ba400252600200100000000000000dc27002092
:102bb4000400000000000000482900200400000078
:102bc4000000000026260020010000000000000094
:102bd4004c2900200400000001000000ffffffff5b
:102be4002726002001000000000000000000002053
:102bf400280000000000000050290020040000000c
:102c0400000000005429002004000000000000001f
:102c14005829002004000000000000006e26002057
:102c24000200000000000000262a0020010000002d
:102c340000000000272a002001000000000000001e
:102c4400282a002001000000000000005c29002068
:102c54000400000000000000242a002002000000fc
:102c64000100000000010000292a002001000000ea
:102c7400000000002a2a00200100000000000000db
:102c8400182900200800000000000000602900202e
:102c9400040000000000000064290020040000007b
:102ca400000000006829002004000000000000006b
:102cb4006c2900200400000000000000702900209e
:102cc40004000000000000002b2a00200100000086
:102cd40001000000ff00000074290020040000002f
:102ce400000000007829002004000000000000001b
:102cf4002c2a002001000000010000000400000054
:102d04002d2a002001000000000000000a290020f4
:102d140002000000000000002e2a00200100000034
:102d2400000000002f2a0020010000000000000025
:102d340028000020bc0000000000000054220020f5
:102d4400f000000000000000e40000200400000087
:102d540000000000e0270020200000000000000028
:102d6400002800202000000000000000e8000020ef
:102d7400200000000000000008010020c000000046
:102d8400000000004427002028000000000000008c
:102d9400302a00200100000000000000c8010020cb
:102da4002c00000000000000f401002030000000ae
:102db40000000000240200200800000000000000c1
:102dc4007c2900200400000000000000d42300201f
:102dd40080000000000000008029002004000000a2
:102de400000000002029002008000000000000006e
:102df400d425002051000000000000000c29002010
:102e04000a0000000000000030160020000400004a
:102e140000000000842900200400000000000000dd
:102e2400902800201800000000000000e82800207e
:102e34000c00000000000000542400206400000086
:102e440000000000b0260020380000000000000050
:102e5400301a002020030000000000001629002082
:102e64000200000001000000010000006c270020a7
:102e7400280000000000000044230020900000000f
:102e8400000000007c250020580000000000000025
:102e9400501d002008020000000000002c02002049
:102ea40010000000000000003c020020420000006e
:102eb4000000000088290020040000000000000039
:102ec4008002002034000000000000008c29002053
:102ed40004000000010000002b2f3d409029002039
:102ee40004000000010000002d5f00003c280020c9
:102ef4001c00000000000000b82400206400000052
:102f040000000000581f0020900100000000000095
:102f1400312a00200100000001000000ff00000031
:102f2400322a00200100000000000000332a0020a3
:102f34000100000000000000342a0020010000000d
:102f440000000000352a00200100000000000000fd
:102f5400362a00200100000000000000372a00206b
:102f6400010000000000000094290020040000007b
:102f74000000000098290020040000000000000068
:102f8400382a002001000000000000009c290020d5
:102f94000400000000000000392a002001000000a5
:102fa400000000003a2a0020010000000000000098
:102fb4003b2a002001000000000000001827002028
:102fc4002c00000000000000582800201c00000015
:102fd40000000000742800201c0000000000000015
:102fe400a828002018000000000000003c2a00204f
:102ff4000100000000000000a029002004000000df
:1030040001000000ffffffffa429002004000000ce
:1030140001000000ffffffffa829002004000000ba
:1030240001000000ffffffffac29002004000000a6
:1030340001000000ffffffffb02900200400000092
:1030440001000000ffffffffb402002004000000a5
:10305400000000003d2a00200100000000000000e4
:10306400b4290020040000000000000028290020ea
:103074000800000001000000e0020020b802002067
:10308400b80200202c000000000000003e2a0020ae
:103094000100000000000000e826002030000000cd
:1030a4000100000000030000b0020000a08601003f
:1030b400000000000000000000000000000000000c
:1030c4000000000000000000dc0500001400000007
:1030d40000000000e40200200900000000000000dd
:1030e400402900200700000001000000756e757380
:1030f40065640000f002002054020000000000009b
:103104003f2a00200100000000000000402a0020a7
:103114000100000000000000412a0020010000001e
:1031240000000000422a002001000000000000000e
:10313400432a00200100000000000000442a00206f
:103144000100000000000000b82900200400000075
:1031540001000000ffffffffbc2900200400000065
:1031640001000000ffffffffc02900200400000051
:1031740001000000ffffffff452a002001000000be
:10318400010000000100000044050020bc00000014
:1031940000000000462a002001000000000000009a
:1031a400472a00200100000000000000482a0020f7
:1031b4000100000000000000492a00200100000076
:1031c40000000000c42900200400000000000000ea
:1031d4004a2a00200100000000000000c829002045
:1031e4000400000001000000ffffffff3029002061
:1031f40008000000010000004156522e496f54009f
:10320400cc2900200400000001000000ffffffffa4
:10321400d02900200400000001000000ffffffff90
:103224004b2a002001000000000000004c2a00206e
:10323400010000000000000010060020000800004b
:1032440000000000d4290020040000000000000059
:10325400c028002014000000010000003c5052452a
:103264004649583e00000000000000000000000035
:103274004d2a002001000000000000004e2a00201a
:1032840001000000000000004f2a0020010000009f
:1032940000000000502a002001000000000000008f
:1032a400512a00200100000000000000522a0020e2
:1032b4000100000000000000d829002004000000e4
:1032c40001000000ffffffffdc29002004000000d4
:1032d40001000000ffffffffe029002004000000c0
:1032e40001000000ffffffff532a0020010000003f
:1032f40000000000542a002001000000000000002b
:10330400282600204600000000000000e4290020d8
:103314000400000000000000e82900200400000070
:1033240000000000ec29002004000000010000005f
:10333400fffffffff029002004000000010000004f
:10334400ffffffffd428002014000000010000004c
:103354004241414141414444314442414141444458
:1033640031440000552a0020010000000100000043
:1033740001000000000600200c0000000000000016
:10338400f42900200400000001000000100e0020b9
:10339400100e0020180400000100000000000000ce
:1033a400fc10002060110020c41100200000000067
:1033b4000000000000000000000000000000000009
:1033c40000000000000000000000000000000000f9
:1033d40000000000000000000000000000000000e9
:1033e40000000000000000000000000000000000d9
:1033f40000000000000000000000000000000000c9
:1034040000000000000000000000000000000000b8
:1034140000000000000000000000000000000000a8
:103424000000000000000000000000000000000098
:103434000000000000000000000000000000000088
:103444000000000001000000000000000e33cdabbe
:1034540034126de6ecde05000b00000000000000f5
:103464000000000000000000000000000000000058
:103474000000000000000000000000000000000048
:103484000000000000000000000000000000000038
:103494000000000000000000000000000000000028
:1037b4000000000094270020280000000000000002
:1037c400f82900200400000000000000fc2900206b
:1037d4000400000000000000002a00200400000093
:1037e400000000002812002008040000010000006e
:1037f4000000000000000000281200202812002011
:10380400301200203012002038120020381200201c
:1038140040120020401200204812002048120020cc
:10382400501200205012002058120020581200207c
:10383400601200206012002068120020681200202c
:1038440070120020701200207812002078120020dc
:10385400801200208012002088120020881200208c
:10386400901200209012002098120020981200203c
:10387400a0120020a0120020a8120020a8120020ec
:10388400b0120020b0120020b8120020b81200209c
:10389400c0120020c0120020c8120020c81200204c
:1038a400d0120020d0120020d8120020d8120020fc
:1038b400e0120020e0120020e8120020e8120020ac
:1038c400f0120020f0120020f8120020f81200205c
:1038d4000013002000130020081300200813002008
:1038e40010130020101300201813002018130020b8
:1038f4002013002020130020281300202813002068
:103904003013002030130020381300203813002017
:1039140040130020401300204813002048130020c7
:103924005013002050130020581300205813002077
:103934006013002060130020681300206813002027
:1039440070130020701300207813002078130020d7
:103954008013002080130020881300208813002087
:103964009013002090130020981300209813002037
:10397400a0130020a0130020a8130020a8130020e7
:10398400b0130020b0130020b8130020b813002097
:10399400c0130020c0130020c8130020c813002047
:1039a400d0130020d0130020d8130020d8130020f7
:1039b400e0130020e0130020e8130020e8130020a7
:1039c400f0130020f0130020f8130020f813002057
:1039d4000014002000140020081400200814002003
:1039e40010140020101400201814002018140020b3
:1039f4002014002020140020281400202814002063
:103a04003014002030140020381400203814002012
:103a140040140020401400204814002048140020c2
:103a24005014002050140020581400205814002072
:103a34006014002060140020681400206814002022
:103a440070140020701400207814002078140020d2
:103a54008014002080140020881400208814002082
:103a64009014002090140020981400209814002032
:103a7400a0140020a0140020a8140020a8140020e2
:103a8400b0140020b0140020b8140020b814002092
:103a9400c0140020c0140020c8140020c814002042
:103aa400d0140020d0140020d8140020d8140020f2
:103ab400e0140020e0140020e8140020e8140020a2
:103ac400f0140020f0140020f8140020f814002052
:103ad40000150020001500200815002008150020fe
:103ae40010150020101500201815002018150020ae
:103af400201500202015002028150020281500205e
:103b0400301500203015002038150020381500200d
:103b140040150020401500204815002048150020bd
:103b2400501500205015002058150020581500206d
:103b3400601500206015002068150020681500201d
:103b440070150020701500207815002078150020cd
:103b5400801500208015002088150020881500207d
:103b6400901500209015002098150020981500202d
:103b7400a0150020a0150020a8150020a8150020dd
:103b8400b0150020b0150020b8150020b81500208d
:103b9400c0150020c0150020c8150020c81500203d
:103ba400d0150020d0150020d8150020d8150020ed
:103bb400e0150020e0150020e8150020e81500209d
:103bc400f0150020f0150020f8150020f81500204d
:103bd40000160020001600200816002008160020f9
:103be40010160020101600201816002018160020a9
:103bf4002016002020160020042a002004000000c3
:103c040001000000ffffffff082a0020040000005d
:103c14000100000000000200f42800200b00000056
:103c240000000000ff2800200b000000000000003e
:103c34000c2a00200400000000000000102a0020cc
:103c44000400000000000000142a0020040000000a
:103c540000000000382900200800000001000000d6
:103c6400a8820100a8820100702600204000000004
:103c74000100000001000000000000004a000000f4
:103c84000000000000000000000000000000000030
:103c940000000000000000004a00000000000000d6
:103ca4000000000000000000000000000000000010
:103cb40000000000e82000206c010000010000006a
:103cc40043000000000000000000000000000000ad
:103cd40000000000000000000000000000000000e0
:103ce400430000000000000000000000000000008d
:103cf40000000000000000000000000000000000c0
:103d0400430000000000000000000000000000006c
:103d1400000000000000000000000000000000009f
:103d2400430000000000000000000000000000004c
:103d3400000000000000000000000000000000007f
:103d4400430000000000000000000000000000002c
:103d5400000000000000000000000000000000005f
:103d6400430000000000000000000000000000000c
:103d7400000000000000000000000000000000003f
:103d840043000000000000000000000000000000ec
:103d9400000000000000000000000000000000001f
:103da400657a0100e9710100000000005cea00008e
:103db4006981010068810100688101006881010056
:103dc4006881010068810100688101006881010047
:103dd4006881010068810100ffffffffffffffff13
:103de400ffffffffffff000001004153434949006b
:103df40000000000000000000000000000000000bf
:103e04000000000000000000000041534349490045
:103e1400000000000000000000000000000000009e
:103e24000000000000000000000000000c0600205c
:103e34000400000000000000182a00200400000014
:103e4400000000001c2a0020040000000100000003
:103e5400182a0020202a002004000000000000008e
:103e6400000000000000000022222222222222223e
:020000040000fa
:103e7400f0b514001d00016c9db00390259e0694be
:103e84000795002909d00123426c93404a608b6056
:103e940013f040ff0023039a1364079b002b1cdae2
:103ea400012333606b005b080793079cba4b220025
:103eb40019931a409a421ad1b84b249a1360069a5d
:103ec400b74b002a03d1240301d100f0a2fd269aa6
:103ed400002a05d10933180007e000233360e4e722
:103ee40018000c330930269a13601db0f0bd069eed
:103ef400079f00220023300039000ef00dfd051e3f
:103f04000dd00123249a1360a54b269a18000d3076
:103f1400002aead01a0026990e320a60e5e71aaba5
:103f240001931bab009332003b0003980cf03cff61
:103f3400630005905b0d00d17fe03a03994c120bae
:103f440014432100984a300018959e180022974b7c
:103f540001f0a6fc964a974b04f022f8964a974b38
:103f640001f076ff040030000d000ff043f8944a8e
:103f7400944b04f015f802000b002000290001f016
:103f840067ff04000d000ff0abfc00220490002337
:103f9400200029000ef0c6fc00280ed004980ff073
:103fa40029f80b000200290020000ef0b5fc0300e4
:103fb40058425841049b1b1a049301231493049bf5
:103fc400162b0fd88049db00c91808684968069a7f
:103fd400079b0ef0bbfc00284bd0049b013b0493d1
:103fe400002314931a9b9e1b00230a933300013b66
:103ff4000c9304d501239b1b0a9300230c93049b6d
:10400400002b38db049a0c9b944663440c930023e6
:1040140011920e93229b0124092b00d990e0052bc9
:1040240002dd0024043b2293229b981e032800d91e
:1040340090e013f01ffe818329741a9b1b9a9e182b
:10404400624bf218202a0fdd203b0698f318d84063
:1040540040239b1a9c4020430ff03efd01235c4cff
:10406400013e0919189371e7202306989b1a98407a
:10407400f2e71490b6e70a9b049a9b1a0a935342f8
:104084000e9300231193c5e701231093239b002b68
:1040940064dd0d930893002203994a6404221100fd
:1040a400143199425fd9039b596c180010f0e4fd58
:1040b400039b09901864089b0e2b00d904e1002c83
:1040c40000d101e1069b079c16931794049b002bd7
:1040d40000dc81e01a000f213b4b0a40d2009b1800
:1040e4001e685f68049b02241d11eb060ad5394b38
:1040f4000d401a6a5b6a1698179902f079f903243d
:1041040006900791334b0f93002d34d1320006985b
:1041140007993b0002f06cf90690079178e00123bf
:10412400239a10939446049b63440d93013308939c
:10413400002bb0dc0123aee70023a6e70023efe762
:10414400002310942293013b0d9308930022122321
:104154002392a0e701231093023bf5e701230d937b
:1041640008931a00f4e703990398496c52000991e3
:104174000131416493e701231d4209d0e4180f9be8
:1041840030001a685b68390003f00aff06000f006c
:104194000f9b6d100833b6e70000f07f0f27000077
:1041a4003c7f01000000f03f01fcffff0000f83fee
:1041b40061436f63a787d23fb3c8608b288ac63f29
:1041c400fb799f501344d33ff8fd000032040000f4
:1041d400000010fe206f0100049b0224002b17d066
:1041e400169817995d420f23ce4a2b40db00d31853
:1041f4001a685b6803f0d4fe012700230690079138
:10420400c94e2d11002d00d08fe0002b00d083e784
:10421400149b002b00d193e0069e079f0022c34b02
:10422400300039000ef07efb002800d188e0089ba6
:10423400002b00d184e00d9b002b41dd049b002268
:10424400013b0f933000ba4b390003f0a9fe0690ee
:1042540007910d9d01342000069e079f0ef0cafeb3
:1042640032003b0003f09cfe0022b24b01f0f0fd53
:1042740012901391129b139caf4a06930794139bbd
:104284009c180794002d5fd10022ac4b30003900fc
:1042940001f006fb069a230006000f000ef056fb01
:1042a400002800d00ae3a6481399844661440b0011
:1042b400069a300039000ef035fb002800d0f5e2f4
:1042c400169b179c069307941b9b002b00da61e155
:1042d400049a0e2a00dd5de1924bd2009b185c68c3
:1042e4001b680a930b94239b002b00dbcde0089bf7
:1042f400002b00ddc9e000d0d8e20a980b99002217
:104304008e4b03f04dfe069a079b0ef029fb089f87
:104314003e00002800d0aee2099b099a5d1c3123bf
:104324001370049b01330493a9e23d4205d0326823
:10433400736803f035fe012301346d10083661e71c
:10434400049b089d0f9386e7099a691e52191292dd
:10435400109a744bc900002a4ad05b181a685b682b
:104364000020784902f044f8069a079b01f098fa75
:10437400099b069007911593390030000ff0b0faad
:1043840004000ef037fe02000b003000390001f08b
:1043940087fa159b30345d1c1c70069a079b060037
:1043a4000f000ef0bffa002864d132003b00002059
:1043b4005e4901f075fa069a079b0ef0b3fa0028dd
:1043c40000d0c2e0129b9d4200d179e7069807997c
:1043d4000022574b03f0e4fd002206900791544b52
:1043e4003000390003f0dcfd159506000f00c3e72b
:1043f400591808684968069a079b03f0d1fd06908e
:104404000791099c390030000ff06afa05000ef09c
:10441400f1fd02000b003000390001f041fa3035a3
:10442400129b2570013406000f000022a34226d1fe
:10443400444b0698079901f00bfd02000b00300075
:1044440039000ef083fa002800d07de0069a079b1d
:1044540000203c4901f024fa02000b00300039002e
:104464000ef060fa129d002800d129e76b1e1a781d
:10447400302a02d00f9b049343e01d00f6e72c4b37
:1044840003f08efd06000f00bce7099b069e079f04
:1044940006930a9a0b9b3000390001f0a9ff0ff034
:1044a4001ffa04000ef0a6fd0a9a0b9b03f078fd98
:1044b40002000b003000390001f0f2f9069b069a65
:1044c4005d1c230030331370099b089aeb1a9a423f
:1044d40051d102000b0001f0bbfc06000f000200ea
:1044e4000b000a980b990ef01dfa00283ed10a9889
:1044f4000b9932003b000ef00ffa002801d0e307bd
:1045040034d40398059913f005fc00232b70049b05
:10451400249a01331360269b0998002b00d1e4e40c
:104524001d60e2e4f8fd0000206f01000000f03f90
:104534000000244000001c400000c0fc00001440a7
:104544000000c07c0000e03f129d6b1e1a78392adf
:1045540008d1099a9a420cd10f9b01330f9330234f
:10456400137013001a7801321a7083e7049b0f93b7
:10457400ebe71d00e9e70022ce4b03f011fd00221a
:10458400002306000f0006950ef0c6f9002800d19e
:104594007fe7b6e7109a002a00d189e0229a012a1f
:1045a4006ddc189a002a66d0c34a9b180e9d0a9c9b
:1045b4000a9a0121d2180a920c9a0398d3180c93e0
:1045c40013f0f1fb0600002c0edd0c9b002b0bdd21
:1045d4000c9a2300944200dd13000a9ae41ad21aba
:1045e4000a920c9ad31a0c930e9b002b1dd0109b8d
:1045f400002b61d0002d10dd31002a0003980ef04d
:1046040003f8059a01000600039809f0cffa0700a1
:104614000599039813f07efb05970e9b5a1b04d053
:10462400059903980df0f0ff05900121039813f00c
:10463400bafb119b0700002b40dd1a000100039810
:104644000df0e2ff229b07000025012b3edc002534
:10465400069bab4236d1079b1b03ab4232d1199b5d
:10466400079a13422ed00a9b012501330a930c9b0f
:1046740001330c9326e036231a9a9b1a96e7089b7b
:104684005d1e0e9bab4208db5d1b089b002b0cda06
:104694000a9b089a9c1a00238ae70e9b0e95ea1a35
:1046a400119b00259b181193efe70a9c089b7fe759
:1046b4000e9d0a9c109e86e70e9ab1e7229b002568
:1046c400012bc4dd119b0120002b08d03b6903336f
:1046d4009b00fb18586811f0c1ff2023181a0c9b8b
:1046e400c0181f23184000d1abe020231b1a042b51
:1046f40000dc9be01c23181a0a9b24181b180a933d
:104704000c9b1b180c930a9b002b05dd1a000599c2
:1047140003980cf093fc05900c9b002b05dd3900ed
:104724001a0003980cf08afc0700149b002b00d19c
:1047340089e03900059811f0deff002800db82e0f3
:10474400049b0a22013b04930599002303980ef06d
:1047540041fa109b0590002b00d163e10023310046
:104764000a2203980ef036fa0d9b0600002b02dc99
:10477400229b022b6fdc002c05dd31002200039804
:104784000cf05cfc06003000002d11d07168039819
:1047940010f072fa3100040033690c319a1c920053
:1047a4000c3013f0f7fa0122210003980cf046fcb8
:1047b400089606000d9d099b013d0a935b190f9312
:1047c4003900059809f036fe08990d900400059803
:1047d40011f091ff32000e90390003980bf0a4fa07
:1047e40001230c93c36830340500002b04d101006d
:1047f400059811f080ff0c902900039813f08afab1
:104804000c9b229a134300d08de00123069a134295
:1048140000d088e0392c00d1a7e00e9b002b01dded
:104824000d9c31340a9b5d1c1c702ae0042b00d1c2
:1048340069e70a9a1c33d2180a920c9ae418d3181e
:1048440060e70300f5e7089b002b3cdc229b022b6e
:1048540039dd089b0d930d9b002b0cd139000522eb
:1048640003980ef0b7f907000100059811f043ff13
:10487400002800dd50e5239b099ddb4304930023be
:1048840008933900039813f045fa002e00d138e656
:10489400089b002b05d0b34203d01900039813f0f2
:1048a40039fa3100039813f035fa2ae600273e005e
:1048b400e1e7c04600002440330400000f9b2f00b2
:1048c40004932e0028e5089b0d93109b002b00d029
:1048d40051e7099d3900059809f0acfd099b30307a
:1048e4000d9a287001350400eb1a9a4200dd7de030
:1048f400151e00dc0125099b5d1900230893059909
:10490400012203980cf09afb3900059011f0f3fe94
:1049140000282fdc01d1e3072cd46b1e1a78302a2f
:10492400afd11d00f9e70e9b002b07db1d00229b76
:104934001d4326d10123069a134222d10c9b002b3e
:1049440000dc6fe70599012203980cf077fb39002e
:10495400059011f0d0fe002804dc00d062e7e307e4
:1049640000d45fe7392c00d05ae70a9b0a9a5d1cf1
:10497400392313706b1e1a78392a3fd001321a700a
:104984007fe70a9b01330d930c9b002b05dd392c2b
:10499400ebd00d9d01340a9b46e70a9b0f9a0d9daf
:1049a4001c709342abd000230a22059903980ef0a1
:1049b40011f9089b0590b3420ad100230a220899f1
:1049c40003980ef007f908900d9b06000a93f7e68a
:1049d400089900230a2203980ef0fcf8002308909b
:1049e4000a22310003980ef0f5f8ede700230a22bd
:1049f400059903980ef0eef805906be7099a9a4230
:104a040005d1049b013304933123137039e71d004e
:104a1400b0e7269a18000833002a01d0fff763fa9a
:104a2400fff763fa0d9b002b00dd52e7229b022b5c
:084a340000dc4ee70fe7c0466d
:020000040000fa
:104a3c00f0b5dbb006901f000c000c23c95e802380
:104a4c009b01194205d10b43a381216eb44b0b4042
:104a5c002366002309920a93059304930793099bf9
:104a6c00099a1b7801320d930992002b00d11be19e
:104a7c0012f0befe08220d9bc018457815401ad0c6
:104a8c006368002b10dd12f0b3fe23681a788018cf
:104a9c0042781207e3d5049a01330132049262681a
:104aac002360013a6260ebe72100069811f0cff821
:104abc000028e8d0d3e7252b00d0ebe0012104201f
:104acc008c460221099b03950892099e0136099692
:104adc001e78632e00d134e13ed8432e00d12ee156
:104aec0023d82a2e00d1fbe014d8002e00d1eae006
:104afc00252e00d1cee012f07bfe032186197378af
:104b0c00884a0b40012b00d11d430a230a920593be
:104b1c0008914ae03300303b092becd80a23039a66
:104b2c005343303bf3180393dce04f2e00d1e9e004
:104b3c0006d8442e00d1e1e04c2edcd10d43d1e05f
:104b4c00582e00d1e4e05b2e00d1efe0532ed2d1f1
:104b5c0001231d4302239be06f2e00d1d4e019d812
:104b6c00692e00d18fe00cd8642e00d1c8e0682edd
:104b7c00c1d15e78682e00d0bee002330993089b49
:104b8c00afe06c2e00d1afe06e2e00d1dfe06a2ecc
:104b9c00b1d1d3e7742e00d1a4e069d8702e00d126
:104bac00d3e002230893732ea5d16368002b00dc9d
:104bbc00efe06b0608d412f01bfe23681a788018fd
:104bcc004278120700d5ece0089b022b00d198e14b
:104bdc00032b00d15ae2012b00d13fe1039a0123b0
:104bec00002a00d103932b4000d104e108220021bc
:104bfc000ea813f05df9002610231d40b54201d11b
:104c0c003e68043700230b93039b002b00d1ebe091
:104c1c0012f0e0fd0b9b83424fd0013308932368c5
:104c2c000b98197810aa115461680133013923606b
:104c3c000eab616000933100089b06980ff026ffc5
:104c4c00431c3ad0002800d0bee0002d00d13560c6
:104c5c00089a049b944663440493039b013b03937f
:104c6c00002308939d4200d0b1e004360895aee0d5
:104c7c00782e4dd07a2e35d02b4b752e00d03ae7ae
:104c8c000a930a2302e0274b0a930023059303237c
:104c9c0008938ae76368002b09dd099a2368013ab7
:104cac0019781278914212d007985bb0f0bd2100b0
:104cbc00069810f0ccff0028efd0079b002b02d0f9
:104ccc00a3895b06f0d501235b420793ece762688e
:104cdc0001332360049b013a626001330493bee606
:104cec0010231d43099bf0e65e786c2e02d1023333
:104cfc00099323e76346f4e70543f3e701231d43d8
:104d0c00084bbde701231d43074b0a930823bde75e
:104d1c0080239b001d43044b0a931023b6e7c04627
:104d2c00ffdfffff257501004575010009991aa8e1
:104d3c000ef095ff402309901d430123a8e70123a2
:104d4c001d4340231d430023a2e78823e1e7eb0624
:104d5c0000d584e63b1d2a0705d569463a68097ccf
:104d6c0011701f007be66a0704d569463a68098a08
:104d7c001180f6e73b1dea0703d53a6804991160e8
:104d8c00efe7aa07f9d53a6804991160c917516081
:104d9c00e7e72100069810f05aff002800d108e739
:104dac008be7049a013204926268013a6260002a2d
:104dbc0002dd01332360fee62100069810f047ff68
:104dcc00002800d1f7e678e7831c00d040e7636841
:104ddc00002b0edc2100069810f039ff002808d0bb
:104dec00089b002b00d068e76b426b41079ad318e5
:104dfc0034e6089b07e7ea061dd51d006368039a95
:104e0c002168934210dad21aed18cb1823602100d6
:104e1c000698039210f01bff0028efd0002d00d154
:104e2c004be7049b5b1959e7039a9b1a8918ad1839
:104e3c0063602160f5e70094039b012239680698b2
:104e4c003d1d0ef025fa002800d136e7049b2f00fb
:104e5c001b180493079b0133079300e6039b002b5d
:104e6c0001d1013b0393eb061bd5002523681aa93e
:104e7c001a788a5c002a02d1002dd2d114e762681c
:104e8c0001332360039b013a01356260ab42c8d009
:104e9c00002aebdc2100069810f0d9fe0028e5d0a2
:104eac00bfe73d683b1d08932b0022681aa81178b8
:104ebc00415c002901d11e0017e061685e1c0139bc
:104ecc006160511c216012781a70039bf31aab427b
:104edc000bd06368002b12dc2100069810f0b7fe93
:104eec0000280cd0b54200d1e7e6751b00d1dbe6fb
:104efc0000233370079b089f0133079391e733001e
:104f0c00d3e7039b002b01d1013b039301262e40d9
:104f1c006ed0082200210ea812f0caff10231d40eb
:104f2c000b950dae002d01d13e680437002512f013
:104f3c005ffc23681b78c01843781b0727d4039b9e
:104f4c00002b24d012f046fc854200d1b5e66b1c38
:104f5c000893236810aa19780133515561682360ae
:104f6c0001390eab616000933100089b06980ff07d
:104f7c008dfd431c00d1a0e6002810d130603068b4
:104f8c0012f076fd051e25d0089b002b17d10b9b2c
:104f9c00002b00d063e53360079b01335ee5089d71
:104fac00831cecd16368002bc1dc2100069810f047
:104fbc004efe0028bbd0002d00d07ee6e7e7089b14
:104fcc000698013b0893089a10abd15c22000df0b7
:104fdc0039fed9e7089a049b944663440493039bd7
:104fec00013b03930b9b002bdcd104361d00d9e74e
:104ffc00eb061ed43b1d3f6808933e0012f0f8fbf5
:10500c0023681a788018427812071dd5350032e0d3
:10501c00626801332360039b013a01366260b3423c
:10502c000fd0002a05dc2100069810f010fe002895
:10503c0007d112f0ddfb23681a788018427812072a
:10504c00e6d5049b9b1949e66268751c013a6260bf
:10505c005a1c22601b783370039beb1abb420ad09c
:10506c006368002b01dd2e00c8e72100069810f0c4
:10507c00eefd0028f7d000232b70049bed1b5b1971
:10508c000493079b089f01330793e8e40022039bda
:10509c001600013b262b04d9039b273b1e0027231c
:1050ac000393d8231b011d4300230b9310ab0893d0
:1050bc0022681378392b2fd8382b00d381e0302b72
:1050cc004ad077d82b2b00d183e02d2b00d180e058
:1050dc00eb0510d5089a10ab9a4207d91600013e81
:1050ec003178220006980df0adfd0896089a10aba9
:1050fc009a4200d1d8e510222a4000d098e0089bb3
:10510c0010a91a700698059b0a9eb0473b1daa066b
:10511c006cd53a6810606de0582b0ed007d819008a
:10512c0041390529d4d805990a2948dcd0e7612be7
:10513c00ced3662bf7d9782bcad1c0218020c900d9
:10514c00294080008142c3d13f490d40a021c900b4
:10515c000d43102105910de029050bd5059900296a
:10516c0004d1802189000d4308210591690507d5db
:10517c0036490d4008990b700b00013308930be076
:10518c00334b1d40331e04d0013b1e00039b0133e7
:10519c0003930b9b01330b936368013b6360002b00
:1051ac001ddd01322260039b013b0393002b00d0d9
:1051bc007ee78de7059948002649415e0591264911
:1051cc00d7e7059948002349415e05910829f6dc8b
:1051dc007ee780210d4200d17ae78d43cae721009a
:1051ec00069810f034fd0028ddd071e72a0703d5ae
:1051fc003a6810701f0018e06a0702d53a681080f0
:10520c00f8e701222a4000d083e7a90700d480e701
:10521c00124b0a99994211d1059b10a9069812f0cc
:10522c00abf93b68043718605960079b013307934f
:10523c00089a10abd61a0b9bf61802e7059b10a91f
:10524c00069812f089f9ece7fffdffff7ffaffffec
:10525c007ffcffff227301007ff4ffff4575010007
:020000040000fa
:10526c00c4cac3c95b7370695f77726974655f7216
:10527c0065675d3a204661696c656420636d642cda
:10528c00207772697465207265672028253038781c
:10529c00292e2e2e0d0a00005b7370695f777269e0
:1052ac0074655f7265675d3a204661696c65642060
:1052bc00636d6420726573706f6e73652c207772ea
:1052cc0069746520726567202825303878292e2e60
:1052dc002e0d0a00526573657420616e6420726530
:1052ec007472792025642025782025780d0a000019
:1052fc005b6e6d5f7370695f696e69745d3a2046b1
:10530c0061696c656420696e7465726e616c207283
:10531c006561642070726f746f636f6c2077697451
:10532c006820435243206f6e2c2072657472796929
:10533c006e67207769746820435243206f66662e2f
:10534c002e2e0d0a000000005b6e6d5f7370695f9e
:10535c00696e69745d3a204661696c656420696e9a
:10536c007465726e616c20726561642070726f740a
:10537c006f636f6c2e2e2e0d0a0000005b6e6d5f3e
:10538c007370695f696e69745d3a204661696c651a
:10539c006420696e7465726e616c207772697465d5
:1053ac002070726f746f636f6c207265672e2e2e77
:1053bc000d0a00005b6e6d5f7370695f696e6974d6
:1053cc005d3a204661696c20636d6420726561648e
:1053dc0020636869702069642e2e2e0d0a0000006f
:1053ec005b7370695f726561645f626c6f636b5d48
:1053fc003a204661696c656420636d642c2072658b
:10540c00616420626c6f636b202825303878292efc
:10541c002e2e0d0a000000005b7370695f726561cf
:10542c00645f626c6f636b5d3a204661696c6564a6
:10543c0020636d6420726573706f6e73652c2072bf
:10544c0065616420626c6f636b2028253038782985
:10545c002e2e2e0d0a0000005b7370695f72656161
:10546c00645f626c6f636b5d3a204661696c656466
:10547c0020626c6f636b206461746120726561647f
:10548c002e2e2e0d0a000000526573657420616e7d
:10549c006420726574727920256420257820256437
:1054ac000d0a00005b7370695f77726974655f62e7
:1054bc006c6f636b5d3a204661696c656420636d4b
:1054cc00642c20777269746520626c6f636b202882
:1054dc0025303878292e2e2e0d0a00005b7370694a
:1054ec005f77726974655f626c6f636b5d3a2046bf
:1054fc0061696c656420636d6420726573706f6e96
:10550c0073652c20777269746520626c6f636b20f5
:10551c002825303878292e2e2e0d0a005b737069e1
:10552c005f646174615f77726974655d3a2046618e
:10553c00696c6564206461746120626c6f636b20bc
:10554c00636d642077726974652c206275732065b5
:10555c0072726f722e2e2e0d0a0000005b73706932
:10556c005f646174615f77726974655d3a2046614e
:10557c00696c6564206461746120626c6f636b207c
:10558c0077726974652c20627573206572726f7204
:10559c002e2e2e0d0a0000005b7370695f6461741f
:1055ac00615f77726974655d3a204661696c656408
:1055bc00206461746120626c6f636b2043524320e2
:1055cc0077726974652c20627573206572726f72c4
:1055dc002e2e2e0d0a0000005b7370695f777269c6
:1055ec0074655f626c6f636b5d3a204661696c65d4
:1055fc006420626c6f636b206461746120777269e4
:10560c0074652e2e2e0d0a005b7370695f777269bc
:10561c0074655f626c6f636b5d3a204661696c65a3
:10562c006420627573206572726f722e2e2e0d0ab5
:10563c00000000005b7370695f77726974655f626c
:10564c006c6f636b5d3a204661696c6564206461c4
:10565c00746120726573706f6e736520726561641e
:10566c002c2025782025782025780d0a0000c046ae
:10567c005b7370695f636d645d3a204661696c654c
:10568c006420636d642077726974652c2062757375
:10569c00206572726f722e2e2e0d0a005b7370696c
:1056ac005f636d645f7273705d3a204661696c650f
:1056bc006420636d6420726573706f6e7365207205
:1056cc006561642c20627573206572726f722e2e68
:1056dc002e0d0a005b7370695f636d645f7273708b
:1056ec005d3a204661696c656420636d6420726567
:1056fc0073706f6e736520726561640a0000000040
:10570c005b7370695f646174615f726561645d3a5b
:10571c00204661696c6564206461746120726573f4
:10572c00706f6e736520726561642c2062757320d6
:10573c006572726f722e2e2e0d0a00005b737069eb
:10574c005f646174615f726561645d3a2046616992
:10575c006c6564206461746120726573706f6e7324
:10576c006520726561642e2e2e2825303278290d25
:10577c000a0000005b7370695f646174615f72653d
:10578c0061645d3a204661696c6564206461746192
:10579c0020626c6f636b20726561642c2062757380
:1057ac00206572726f722e2e2e0d0a005b7370695b
:1057bc005f646174615f726561645d3a2046616922
:1057cc006c6564206461746120626c6f636b204350
:1057dc00524320726561642c20627573206572726d
:1057ec006f722e2e2e0d0a005b7370695f726561ed
:1057fc00645f7265675d3a204661696c656420631d
:10580c006d642c20726561642072656720282530d8
:10581c003878292e2e2e0d0a000000005b7370695b
:10582c005f726561645f7265675d3a204661696ca1
:10583c00656420636d6420726573706f6e73652c84
:10584c0020726561642072656720282530387829bc
:10585c002e2e2e0d0a0000005b7370695f7265615d
:10586c00645f7265675d3a204661696c65642064ab
:10587c0061746120726561642e2e2e0d0a00000089
:10588c00526573657420616e642072657472792040
:08589c0025642025780d0a00a7
:020000040000fa
:1058a400f7b50d0009036c00ed0f0095490a450f8b
:1058b40029431d035e00c700d80f6b0a550f2b4305
:1058c400c14d640d760dd200ae4203d11d00844655
:1058d400154302d101254540ac46009da01bac45b3
:1058e40000d036e1002861dd002e25d11d001543ce
:1058f40000d196e2461e002e19d1ba18ba42a4412c
:10590400c91864420919170001240b0200d4bee02f
:10591400ad4b01349c4200d180e2ac487b0801408d
:10592400012007401f43c80707434908afe0a64dbd
:10593400a84209d1a44caae0a34dac4200d1a6e0f0
:10594400802506002d042b43382e2adc1f2e17dc5d
:1059540020201d00801b8540ac4615000190f540b9
:10596400604605430198f3408240501e824115432e
:10597400ed195b18bd428941494259182f00c4e70b
:1059840030001d002038c5400020202e03d04020c8
:10599400861bb34018000243501e82411543002366
:1059a400e6e71a4315006a1e9541f8e7002850d02f
:1059b400002c14d10c003c4300d128e2c443002c39
:1059c40007d1bf189742a441c91864420919340089
:1059d4009be77d48864209d119001700aae77a4c53
:1059e400a642f9d04442802000040143382c2bdc29
:1059f4001f2c17dc2025281b01900800019de14085
:105a0400a840844638006546e0402843019daf40e5
:105a14007d1eaf413843871897429241c9185242bc
:105a24008918d4e720000d002038c540280000253f
:105a3400202c03d040252c1ba1400d002f437d1e9c
:105a4400af4138430021e6e70f433800471eb84111
:105a5400f8e7661c75056d0d012d00dd69e0080091
:105a64003843002c49d1002800d1d3e11800104359
:105a74000dd0ba18ba42b641c918802376428919a2
:105a84001b041700194202d00124504b19407b0714
:105a940009d00f233b40042b05d03b1dbb42bf4123
:105aa4007f42c9191f000b0206d5474b01349c42a3
:105ab40000d1c3e1454b1940434b4807ff08384325
:105ac400c9089c4206d103000b4300d1b9e18023ed
:105ad4001b031943002709033b0d1b05090b19433d
:105ae4003b4b6405194064080c43009b6400d907d0
:105af40064080c43210003b0f0bd002800d16be71b
:105b04001800104300d115e74807ff080743802019
:105b1400c9080003014207d0dc08044204d1d208ba
:105b24005b0713431f002100780fc9000143ff00e6
:105b340000e7254ca64200d16fe1ba18c918ba4251
:105b44009b415b42cb18df075208174359083400c6
:105b54009de700285ddd002e3cd11d00154300d1da
:105b64005fe1461e002e0ed1ba1a9742bf41c91af0
:105b74007f42c91b012417000b0200d487e74902a6
:105b84004d0a3e00f9e0104da84200d1d2e6382e6d
:105b94003adc1f2e27dc20201d00801b8540ac46ec
:105ba40015000190f540604605430198f34082409a
:105bb400501e824115437d1bcb1aaf428941494295
:105bc400591a2f00d8e7c046ff070000ffff7fffe8
:105bd400ffff0f809c4dac4200d158e780252d0477
:105be4002b430600d3e730001d002038c5400020b9
:105bf400202e03d04020861bb34018000243501ec1
:105c0400824115430023d6e71a4315006a1e9541c5
:105c1400f8e700284dd0002c17d10c003c4300d1ec
:105c240001e1c443002c09d1d71bba429241591a4d
:105c340063465242891a340000939de782488642a3
:105c44000ad119001700804c45e07f4ca642f8d0d9
:105c54004442802000040143382c25dc1f2c11dc35
:105c64002025281b00900800009de140a840050065
:105c74003800e0402843009daf407d1eaf413843cb
:105c8400171ad2e720000d002038c540280000254f
:105c9400202c03d040252c1ba1400d002f437d1e3a
:105ca400af4138430021ebe70f433800471eb841aa
:105cb400f8e7601c4005400d01284cdc18000d007d
:105cc40010433d43002c24d1002d07d1071e00d1e1
:105cd400ade01900170063460093d8e6002800d110
:105ce400d5e6bd1aaf42b641c81a7642801b80265b
:105cf4003604304206d0d71bba429241591a524256
:105d0400891ae8e72f00074300d190e001002f0033
:105d1400bde6002d07d1071e00d18be019006346b4
:105d24001700009306e6002800d103e64807ff08a1
:105d340007438020c9080003014200d1f4e6dc08cf
:105d4400044200d0f0e6d2085b0713431f00634609
:105d540021000093e8e6be1ab7428041cd1a4042c2
:105d64002d1a8020000405422dd0d61bb242ad412d
:105d7400591a63466d424d1b0093002d29d028000b
:105d840010f096f80300083b1f2b27dc202231007b
:105d94009e40d21a9d40d14037000d439c4232dcd4
